{"2_smart_contract/contracts/certificationC3.sol":{"CertificationC1":{"abi":[{"inputs":[],"stateMutability":"nonpayable","type":"constructor"},{"inputs":[{"internalType":"uint16","name":"a","type":"uint16"},{"internalType":"uint16","name":"b","type":"uint16"}],"name":"function1","outputs":[{"internalType":"uint16","name":"result","type":"uint16"}],"stateMutability":"nonpayable","type":"function"},{"inputs":[{"internalType":"uint16","name":"a","type":"uint16"}],"name":"function2","outputs":[{"internalType":"uint16","name":"result","type":"uint16"}],"stateMutability":"nonpayable","type":"function"}],"evm":{"bytecode":{"linkReferences":{},"object":"608060405234801561001057600080fd5b506101ca806100206000396000f3fe608060405234801561001057600080fd5b50600436106100365760003560e01c806382c56fc71461003b578063b572c25414610065575b600080fd5b61004e6100493660046100d9565b610078565b60405161ffff909116815260200160405180910390f35b61004e61007336600461010c565b61009d565b60006100848284610144565b3360009081526020819052604090204390559392505050565b60006100aa82600261016e565b33600090815260016020526040902043905592915050565b803561ffff811681146100d457600080fd5b919050565b600080604083850312156100ec57600080fd5b6100f5836100c2565b9150610103602084016100c2565b90509250929050565b60006020828403121561011e57600080fd5b610127826100c2565b9392505050565b634e487b7160e01b600052601160045260246000fd5b600061ffff808316818516818304811182151516156101655761016561012e565b02949350505050565b600061ffff80831681851680830382111561018b5761018b61012e565b0194935050505056fea2646970667358221220c7655a504225777dbbb73ce569a349e6c20a9607ef84779949f7a9bf4a019ac464736f6c634300080f0033","opcodes":"PUSH1 0x80 PUSH1 0x40 MSTORE CALLVALUE DUP1 ISZERO PUSH2 0x10 JUMPI PUSH1 0x0 DUP1 REVERT JUMPDEST POP PUSH2 0x1CA DUP1 PUSH2 0x20 PUSH1 0x0 CODECOPY PUSH1 0x0 RETURN INVALID PUSH1 0x80 PUSH1 0x40 MSTORE CALLVALUE DUP1 ISZERO PUSH2 0x10 JUMPI PUSH1 0x0 DUP1 REVERT JUMPDEST POP PUSH1 0x4 CALLDATASIZE LT PUSH2 0x36 JUMPI PUSH1 0x0 CALLDATALOAD PUSH1 0xE0 SHR DUP1 PUSH4 0x82C56FC7 EQ PUSH2 0x3B JUMPI DUP1 PUSH4 0xB572C254 EQ PUSH2 0x65 JUMPI JUMPDEST PUSH1 0x0 DUP1 REVERT JUMPDEST PUSH2 0x4E PUSH2 0x49 CALLDATASIZE PUSH1 0x4 PUSH2 0xD9 JUMP JUMPDEST PUSH2 0x78 JUMP JUMPDEST PUSH1 0x40 MLOAD PUSH2 0xFFFF SWAP1 SWAP2 AND DUP2 MSTORE PUSH1 0x20 ADD PUSH1 0x40 MLOAD DUP1 SWAP2 SUB SWAP1 RETURN JUMPDEST PUSH2 0x4E PUSH2 0x73 CALLDATASIZE PUSH1 0x4 PUSH2 0x10C JUMP JUMPDEST PUSH2 0x9D JUMP JUMPDEST PUSH1 0x0 PUSH2 0x84 DUP3 DUP5 PUSH2 0x144 JUMP JUMPDEST CALLER PUSH1 0x0 SWAP1 DUP2 MSTORE PUSH1 0x20 DUP2 SWAP1 MSTORE PUSH1 0x40 SWAP1 KECCAK256 NUMBER SWAP1 SSTORE SWAP4 SWAP3 POP POP POP JUMP JUMPDEST PUSH1 0x0 PUSH2 0xAA DUP3 PUSH1 0x2 PUSH2 0x16E JUMP JUMPDEST CALLER PUSH1 0x0 SWAP1 DUP2 MSTORE PUSH1 0x1 PUSH1 0x20 MSTORE PUSH1 0x40 SWAP1 KECCAK256 NUMBER SWAP1 SSTORE SWAP3 SWAP2 POP POP JUMP JUMPDEST DUP1 CALLDATALOAD PUSH2 0xFFFF DUP2 AND DUP2 EQ PUSH2 0xD4 JUMPI PUSH1 0x0 DUP1 REVERT JUMPDEST SWAP2 SWAP1 POP JUMP JUMPDEST PUSH1 0x0 DUP1 PUSH1 0x40 DUP4 DUP6 SUB SLT ISZERO PUSH2 0xEC JUMPI PUSH1 0x0 DUP1 REVERT JUMPDEST PUSH2 0xF5 DUP4 PUSH2 0xC2 JUMP JUMPDEST SWAP2 POP PUSH2 0x103 PUSH1 0x20 DUP5 ADD PUSH2 0xC2 JUMP JUMPDEST SWAP1 POP SWAP3 POP SWAP3 SWAP1 POP JUMP JUMPDEST PUSH1 0x0 PUSH1 0x20 DUP3 DUP5 SUB SLT ISZERO PUSH2 0x11E JUMPI PUSH1 0x0 DUP1 REVERT JUMPDEST PUSH2 0x127 DUP3 PUSH2 0xC2 JUMP JUMPDEST SWAP4 SWAP3 POP POP POP JUMP JUMPDEST PUSH4 0x4E487B71 PUSH1 0xE0 SHL PUSH1 0x0 MSTORE PUSH1 0x11 PUSH1 0x4 MSTORE PUSH1 0x24 PUSH1 0x0 REVERT JUMPDEST PUSH1 0x0 PUSH2 0xFFFF DUP1 DUP4 AND DUP2 DUP6 AND DUP2 DUP4 DIV DUP2 GT DUP3 ISZERO ISZERO AND ISZERO PUSH2 0x165 JUMPI PUSH2 0x165 PUSH2 0x12E JUMP JUMPDEST MUL SWAP5 SWAP4 POP POP POP POP JUMP JUMPDEST PUSH1 0x0 PUSH2 0xFFFF DUP1 DUP4 AND DUP2 DUP6 AND DUP1 DUP4 SUB DUP3 GT ISZERO PUSH2 0x18B JUMPI PUSH2 0x18B PUSH2 0x12E JUMP JUMPDEST ADD SWAP5 SWAP4 POP POP POP POP JUMP INVALID LOG2 PUSH5 0x6970667358 0x22 SLT KECCAK256 0xC7 PUSH6 0x5A504225777D 0xBB 0xB7 EXTCODECOPY 0xE5 PUSH10 0xA349E6C20A9607EF8477 SWAP10 0x49 0xF7 0xA9 0xBF 0x4A ADD SWAP11 0xC4 PUSH5 0x736F6C6343 STOP ADDMOD 0xF STOP CALLER "},"methodIdentifiers":{"function1(uint16,uint16)":"82c56fc7","function2(uint16)":"b572c254"}}}}}